{
  "_format": "hh-sol-artifact-1",
  "contractName": "SimpleVoting",
  "sourceName": "contracts/SimpleVoting.sol",
  "abi": [
    {
      "inputs": [],
      "stateMutability": "nonpayable",
      "type": "constructor"
    },
    {
      "anonymous": false,
      "inputs": [
        {
          "indexed": true,
          "internalType": "uint256",
          "name": "candidateId",
          "type": "uint256"
        },
        {
          "indexed": false,
          "internalType": "string",
          "name": "name",
          "type": "string"
        }
      ],
      "name": "CandidateAdded",
      "type": "event"
    },
    {
      "anonymous": false,
      "inputs": [
        {
          "indexed": true,
          "internalType": "address",
          "name": "voter",
          "type": "address"
        },
        {
          "indexed": true,
          "internalType": "uint256",
          "name": "candidateId",
          "type": "uint256"
        },
        {
          "indexed": false,
          "internalType": "uint256",
          "name": "weight",
          "type": "uint256"
        }
      ],
      "name": "Voted",
      "type": "event"
    },
    {
      "anonymous": false,
      "inputs": [
        {
          "indexed": false,
          "internalType": "uint256",
          "name": "totalVotes",
          "type": "uint256"
        },
        {
          "indexed": false,
          "internalType": "bool",
          "name": "quorumMet",
          "type": "bool"
        }
      ],
      "name": "VotingEnded",
      "type": "event"
    },
    {
      "anonymous": false,
      "inputs": [
        {
          "indexed": false,
          "internalType": "uint256",
          "name": "deadline",
          "type": "uint256"
        },
        {
          "indexed": false,
          "internalType": "uint256",
          "name": "quorum",
          "type": "uint256"
        }
      ],
      "name": "VotingStarted",
      "type": "event"
    },
    {
      "anonymous": false,
      "inputs": [
        {
          "indexed": true,
          "internalType": "address",
          "name": "voter",
          "type": "address"
        },
        {
          "indexed": false,
          "internalType": "uint256",
          "name": "weight",
          "type": "uint256"
        }
      ],
      "name": "WeightAssigned",
      "type": "event"
    },
    {
      "inputs": [
        {
          "internalType": "string",
          "name": "_name",
          "type": "string"
        }
      ],
      "name": "addCandidate",
      "outputs": [],
      "stateMutability": "nonpayable",
      "type": "function"
    },
    {
      "inputs": [
        {
          "internalType": "address",
          "name": "_voter",
          "type": "address"
        },
        {
          "internalType": "uint256",
          "name": "_weight",
          "type": "uint256"
        }
      ],
      "name": "assignWeight",
      "outputs": [],
      "stateMutability": "nonpayable",
      "type": "function"
    },
    {
      "inputs": [
        {
          "internalType": "uint256",
          "name": "",
          "type": "uint256"
        }
      ],
      "name": "candidates",
      "outputs": [
        {
          "internalType": "uint256",
          "name": "id",
          "type": "uint256"
        },
        {
          "internalType": "string",
          "name": "name",
          "type": "string"
        },
        {
          "internalType": "uint256",
          "name": "voteCount",
          "type": "uint256"
        }
      ],
      "stateMutability": "view",
      "type": "function"
    },
    {
      "inputs": [],
      "name": "endVoting",
      "outputs": [],
      "stateMutability": "nonpayable",
      "type": "function"
    },
    {
      "inputs": [
        {
          "internalType": "uint256",
          "name": "_candidateId",
          "type": "uint256"
        }
      ],
      "name": "getCandidate",
      "outputs": [
        {
          "internalType": "uint256",
          "name": "id",
          "type": "uint256"
        },
        {
          "internalType": "string",
          "name": "name",
          "type": "string"
        },
        {
          "internalType": "uint256",
          "name": "voteCount",
          "type": "uint256"
        }
      ],
      "stateMutability": "view",
      "type": "function"
    },
    {
      "inputs": [],
      "name": "getCandidateCount",
      "outputs": [
        {
          "internalType": "uint256",
          "name": "",
          "type": "uint256"
        }
      ],
      "stateMutability": "view",
      "type": "function"
    },
    {
      "inputs": [],
      "name": "getResults",
      "outputs": [
        {
          "internalType": "uint256[]",
          "name": "ids",
          "type": "uint256[]"
        },
        {
          "internalType": "string[]",
          "name": "names",
          "type": "string[]"
        },
        {
          "internalType": "uint256[]",
          "name": "voteCounts",
          "type": "uint256[]"
        }
      ],
      "stateMutability": "view",
      "type": "function"
    },
    {
      "inputs": [],
      "name": "getWinner",
      "outputs": [
        {
          "internalType": "uint256",
          "name": "winnerId",
          "type": "uint256"
        },
        {
          "internalType": "string",
          "name": "winnerName",
          "type": "string"
        },
        {
          "internalType": "uint256",
          "name": "winnerVotes",
          "type": "uint256"
        },
        {
          "internalType": "bool",
          "name": "quorumMet",
          "type": "bool"
        }
      ],
      "stateMutability": "view",
      "type": "function"
    },
    {
      "inputs": [
        {
          "internalType": "address",
          "name": "",
          "type": "address"
        }
      ],
      "name": "hasVoted",
      "outputs": [
        {
          "internalType": "bool",
          "name": "",
          "type": "bool"
        }
      ],
      "stateMutability": "view",
      "type": "function"
    },
    {
      "inputs": [],
      "name": "isCallerOwner",
      "outputs": [
        {
          "internalType": "bool",
          "name": "",
          "type": "bool"
        }
      ],
      "stateMutability": "view",
      "type": "function"
    },
    {
      "inputs": [],
      "name": "isDeadlinePassed",
      "outputs": [
        {
          "internalType": "bool",
          "name": "",
          "type": "bool"
        }
      ],
      "stateMutability": "view",
      "type": "function"
    },
    {
      "inputs": [],
      "name": "minimumQuorum",
      "outputs": [
        {
          "internalType": "uint256",
          "name": "",
          "type": "uint256"
        }
      ],
      "stateMutability": "view",
      "type": "function"
    },
    {
      "inputs": [],
      "name": "resetElection",
      "outputs": [],
      "stateMutability": "nonpayable",
      "type": "function"
    },
    {
      "inputs": [
        {
          "internalType": "uint256",
          "name": "_durationSeconds",
          "type": "uint256"
        },
        {
          "internalType": "uint256",
          "name": "_minimumQuorum",
          "type": "uint256"
        }
      ],
      "name": "startVoting",
      "outputs": [],
      "stateMutability": "nonpayable",
      "type": "function"
    },
    {
      "inputs": [],
      "name": "totalVotesCast",
      "outputs": [
        {
          "internalType": "uint256",
          "name": "",
          "type": "uint256"
        }
      ],
      "stateMutability": "view",
      "type": "function"
    },
    {
      "inputs": [
        {
          "internalType": "uint256",
          "name": "_candidateId",
          "type": "uint256"
        }
      ],
      "name": "vote",
      "outputs": [],
      "stateMutability": "nonpayable",
      "type": "function"
    },
    {
      "inputs": [
        {
          "internalType": "address",
          "name": "",
          "type": "address"
        }
      ],
      "name": "voterChoice",
      "outputs": [
        {
          "internalType": "uint256",
          "name": "",
          "type": "uint256"
        }
      ],
      "stateMutability": "view",
      "type": "function"
    },
    {
      "inputs": [
        {
          "internalType": "address",
          "name": "",
          "type": "address"
        }
      ],
      "name": "voterWeight",
      "outputs": [
        {
          "internalType": "uint256",
          "name": "",
          "type": "uint256"
        }
      ],
      "stateMutability": "view",
      "type": "function"
    },
    {
      "inputs": [],
      "name": "votingActive",
      "outputs": [
        {
          "internalType": "bool",
          "name": "",
          "type": "bool"
        }
      ],
      "stateMutability": "view",
      "type": "function"
    },
    {
      "inputs": [],
      "name": "votingDeadline",
      "outputs": [
        {
          "internalType": "uint256",
          "name": "",
          "type": "uint256"
        }
      ],
      "stateMutability": "view",
      "type": "function"
    }
  ],
  "bytecode": "0x6080604052348015600e575f5ffd5b505f80546001600160a01b031916331790556115d18061002d5f395ff3fe608060405234801561000f575f5ffd5b5060043610610127575f3560e01c80637de418d5116100a9578063911152bc1161006e578063911152bc14610271578063a94a1da014610279578063ad84c2da1461028b578063c3403ddf146102aa578063e8f30523146102b2575f5ffd5b80637de418d5146102155780638160f0b51461021e578063861b7d75146102275780638e7ea5b21461024657806390fe56091461025e575f5ffd5b80633477ee2e116100ef5780633477ee2e146101a957806335b8e820146101cb578063408e2727146101de578063462e91ec146101eb5780634717f97c146101fe575f5ffd5b80630121b93f1461012b578063036ee8501461014057806309eef43e1461015c5780631e4baf941461018e57806330a56347146101a1575b5f5ffd5b61013e6101393660046110d3565b6102ba565b005b61014960015481565b6040519081526020015b60405180910390f35b61017e61016a366004611105565b60056020525f908152604090205460ff1681565b6040519015158152602001610153565b61013e61019c366004611125565b6104f7565b600954610149565b6101bc6101b73660046110d3565b61063b565b6040516101539392919061117b565b6101bc6101d93660046110d3565b6106e3565b60045461017e9060ff1681565b61013e6101f93660046111a3565b6107ca565b61020661099a565b6040516101539392919061124b565b61014960035481565b61014960025481565b610149610235366004611105565b60086020525f908152604090205481565b61024e610bda565b60405161015394939291906112d3565b61013e61026c366004611303565b610d47565b61017e610ea8565b5f546001600160a01b0316331461017e565b610149610299366004611105565b60076020525f908152604090205481565b61013e610ec0565b61013e610f98565b60045460ff166103245760405162461bcd60e51b815260206004820152602a60248201527f53696d706c65566f74696e673a20766f74696e672073657373696f6e206973206044820152696e6f742061637469766560b01b60648201526084015b60405180910390fd5b6001541561038f5760015442111561038f5760405162461bcd60e51b815260206004820152602860248201527f53696d706c65566f74696e673a20766f74696e6720646561646c696e652068616044820152671cc81c185cdcd95960c21b606482015260840161031b565b805f811180156103a157506009548111155b6103bd5760405162461bcd60e51b815260040161031b90611323565b335f9081526005602052604090205460ff161561042c5760405162461bcd60e51b815260206004820152602760248201527f53696d706c65566f74696e673a20616464726573732068617320616c726561646044820152661e481d9bdd195960ca1b606482015260840161031b565b335f90815260086020526040812054610446576001610456565b335f908152600860205260409020545b335f908152600560209081526040808320805460ff1916600117905560078252808320879055868352600690915281206002018054929350839290919061049e90849061137d565b925050819055508060035f8282546104b6919061137d565b9091555050604051818152839033907fea66f58e474bc09f580000e81f31b334d171db387d0c6098ba47bd897741679b9060200160405180910390a3505050565b5f546001600160a01b031633146105205760405162461bcd60e51b815260040161031b90611396565b6001600160a01b0382166105825760405162461bcd60e51b815260206004820152602360248201527f53696d706c65566f74696e673a20696e76616c696420766f746572206164647260448201526265737360e81b606482015260840161031b565b60018110156105e35760405162461bcd60e51b815260206004820152602760248201527f53696d706c65566f74696e673a20776569676874206d757374206265206174206044820152666c65617374203160c81b606482015260840161031b565b6001600160a01b0382165f8181526008602052604090819020839055517f0e0adfb6631ea30509f82e2d7abf7b99d94eb412cc52a3db57f504678350768a9061062f9084815260200190565b60405180910390a25050565b60066020525f90815260409020805460018201805491929161065c906113db565b80601f0160208091040260200160405190810160405280929190818152602001828054610688906113db565b80156106d35780601f106106aa576101008083540402835291602001916106d3565b820191905f5260205f20905b8154815290600101906020018083116106b657829003601f168201915b5050505050908060020154905083565b5f60605f835f811180156106f957506009548111155b6107155760405162461bcd60e51b815260040161031b90611323565b5f85815260066020526040902080546002820154600183018054909190829061073d906113db565b80601f0160208091040260200160405190810160405280929190818152602001828054610769906113db565b80156107b45780601f1061078b576101008083540402835291602001916107b4565b820191905f5260205f20905b81548152906001019060200180831161079757829003601f168201915b5050505050915094509450945050509193909250565b5f546001600160a01b031633146107f35760405162461bcd60e51b815260040161031b90611396565b60045460ff161561086c5760405162461bcd60e51b815260206004820152603a60248201527f53696d706c65566f74696e673a2063616e6e6f74206164642063616e6469646160448201527f746573207768696c6520766f74696e6720697320616374697665000000000000606482015260840161031b565b806108ce5760405162461bcd60e51b815260206004820152602c60248201527f53696d706c65566f74696e673a2063616e646964617465206e616d652063616e60448201526b6e6f7420626520656d70747960a01b606482015260840161031b565b60098054905f6108dd83611413565b91905055506040518060600160405280600954815260200183838080601f0160208091040260200160405190810160405280939291908181526020018383808284375f92018290525093855250505060209182018190526009548152600682526040902082518155908201516001820190610958908261148b565b50604082015181600201559050506009547fe83b2a43e7e82d975c8a0a6d2f045153c869e111136a34d1889ab7b598e396a3838360405161062f929190611546565b606080606060095467ffffffffffffffff8111156109ba576109ba61142b565b6040519080825280602002602001820160405280156109e3578160200160208202803683370190505b50925060095467ffffffffffffffff811115610a0157610a0161142b565b604051908082528060200260200182016040528015610a3457816020015b6060815260200190600190039081610a1f5790505b50915060095467ffffffffffffffff811115610a5257610a5261142b565b604051908082528060200260200182016040528015610a7b578160200160208202803683370190505b50905060015b6009548111610bd4575f8181526006602052604090205484610aa4600184611574565b81518110610ab457610ab4611587565b60200260200101818152505060065f8281526020019081526020015f206001018054610adf906113db565b80601f0160208091040260200160405190810160405280929190818152602001828054610b0b906113db565b8015610b565780601f10610b2d57610100808354040283529160200191610b56565b820191905f5260205f20905b815481529060010190602001808311610b3957829003601f168201915b505050505083600183610b699190611574565b81518110610b7957610b79611587565b602002602001018190525060065f8281526020019081526020015f206002015482600183610ba79190611574565b81518110610bb757610bb7611587565b602090810291909101015280610bcc81611413565b915050610a81565b50909192565b5f60605f5f5f60095411610c3f5760405162461bcd60e51b815260206004820152602660248201527f53696d706c65566f74696e673a206e6f2063616e6469646174657320726567696044820152651cdd195c995960d21b606482015260840161031b565b5f60015b6009548111610d35575f81815260066020526040902060020154821015610d23575f818152600660205260409020600281015481546001909201805492985090935090610c8f906113db565b80601f0160208091040260200160405190810160405280929190818152602001828054610cbb906113db565b8015610d065780601f10610cdd57610100808354040283529160200191610d06565b820191905f5260205f20905b815481529060010190602001808311610ce957829003601f168201915b5050505f8481526006602052604090206002015492975091955050505b80610d2d81611413565b915050610c43565b50600254600354101591505090919293565b5f546001600160a01b03163314610d705760405162461bcd60e51b815260040161031b90611396565b60045460ff1615610dd25760405162461bcd60e51b815260206004820152602660248201527f53696d706c65566f74696e673a20766f74696e6720697320616c72656164792060448201526561637469766560d01b606482015260840161031b565b60026009541015610e365760405162461bcd60e51b815260206004820152602860248201527f53696d706c65566f74696e673a206e656564206174206c6561737420322063616044820152676e6469646174657360c01b606482015260840161031b565b6004805460ff19166001179055600281905581610e53575f610e5d565b610e5d824261137d565b60018190556002546040517ff8c022056754dbacca05aff710dc315a2fa7699ae9309fda403cd1e55c11d40f92610e9c92908252602082015260400190565b60405180910390a15050565b5f6001545f03610eb757505f90565b50600154421190565b5f546001600160a01b03163314610ee95760405162461bcd60e51b815260040161031b90611396565b60045460ff16610f465760405162461bcd60e51b815260206004820152602260248201527f53696d706c65566f74696e673a20766f74696e67206973206e6f742061637469604482015261766560f01b606482015260840161031b565b6004805460ff1916905560025460035460408051828152929091101560208301819052917f749401fbcf84060e674288f72958788493c197c75779648c97effca245155d22910160405180910390a150565b5f546001600160a01b03163314610fc15760405162461bcd60e51b815260040161031b90611396565b60045460ff16156110265760405162461bcd60e51b815260206004820152602960248201527f53696d706c65566f74696e673a20656e6420766f74696e67206265666f726520604482015268726573657474696e6760b81b606482015260840161031b565b60015b600954811161106b575f818152600660205260408120818155906110506001830182611081565b505f600291909101558061106381611413565b915050611029565b505f600981905560038190556001819055600255565b50805461108d906113db565b5f825580601f1061109c575050565b601f0160209004905f5260205f20908101906110b891906110bb565b50565b5b808211156110cf575f81556001016110bc565b5090565b5f602082840312156110e3575f5ffd5b5035919050565b80356001600160a01b0381168114611100575f5ffd5b919050565b5f60208284031215611115575f5ffd5b61111e826110ea565b9392505050565b5f5f60408385031215611136575f5ffd5b61113f836110ea565b946020939093013593505050565b5f81518084528060208401602086015e5f602082860101526020601f19601f83011685010191505092915050565b838152606060208201525f611193606083018561114d565b9050826040830152949350505050565b5f5f602083850312156111b4575f5ffd5b823567ffffffffffffffff8111156111ca575f5ffd5b8301601f810185136111da575f5ffd5b803567ffffffffffffffff8111156111f0575f5ffd5b856020828401011115611201575f5ffd5b6020919091019590945092505050565b5f8151808452602084019350602083015f5b82811015611241578151865260209586019590910190600101611223565b5093949350505050565b606081525f61125d6060830186611211565b828103602084015280855180835260208301915060208160051b840101602088015f5b838110156112b257601f1986840301855261129c83835161114d565b6020958601959093509190910190600101611280565b505085810360408701526112c68188611211565b9998505050505050505050565b848152608060208201525f6112eb608083018661114d565b60408301949094525090151560609091015292915050565b5f5f60408385031215611314575f5ffd5b50508035926020909101359150565b60208082526026908201527f53696d706c65566f74696e673a2063616e64696461746520646f6573206e6f7460408201526508195e1a5cdd60d21b606082015260800190565b634e487b7160e01b5f52601160045260245ffd5b8082018082111561139057611390611369565b92915050565b60208082526025908201527f53696d706c65566f74696e673a2063616c6c6572206973206e6f74207468652060408201526437bbb732b960d91b606082015260800190565b600181811c908216806113ef57607f821691505b60208210810361140d57634e487b7160e01b5f52602260045260245ffd5b50919050565b5f6001820161142457611424611369565b5060010190565b634e487b7160e01b5f52604160045260245ffd5b601f82111561148657805f5260205f20601f840160051c810160208510156114645750805b601f840160051c820191505b81811015611483575f8155600101611470565b50505b505050565b815167ffffffffffffffff8111156114a5576114a561142b565b6114b9816114b384546113db565b8461143f565b6020601f8211600181146114eb575f83156114d45750848201515b5f19600385901b1c1916600184901b178455611483565b5f84815260208120601f198516915b8281101561151a57878501518255602094850194600190920191016114fa565b508482101561153757868401515f19600387901b60f8161c191681555b50505050600190811b01905550565b60208152816020820152818360408301375f818301604090810191909152601f909201601f19160101919050565b8181038181111561139057611390611369565b634e487b7160e01b5f52603260045260245ffdfea2646970667358221220de88626ad52747cf84b37ed0491b795e416c465836c3858b859ffeee5058f52164736f6c634300081c0033",
  "linkReferences": {},
  "deployedLinkReferences": {}
}